:020000040000FA
:100000006802001069010000710100007301000026
:100010007501000077010000790100000000000078
:100020000000000000000000000000007B01000054
:100030007D010000000000007F0100008101000040
:1000400083010000830100008301000083010000A0
:100050008301000083010000830100008301000090
:100060008301000083010000830100008301000080
:100070008301000083010000830100008301000070
:100080008301000083010000830100008301000060
:100090008301000083010000830100008301000050
:1000A0008301000083010000830100008301000040
:1000B0008301000083010000830100008301000030
:1000C00083010000830100008301000000F002F8BA
:1000D00000F03AF80AA090E8000C82448344AAF1A8
:1000E0000107DA4501D100F02FF8AFF2090EBAE8A6
:1000F0000F0013F0010F18BFFB1A43F0010318475C
:100100006018000080180000103A24BF78C878C139
:10011000FAD8520724BF30C830C144BF04680C600D
:10012000704700000023002400250026103A28BF55
:1001300078C1FBD8520728BF30C148BF0B60704759
:100140001FB51FBD10B510BD00F09CF81146FFF79C
:10015000F7FF00F02DF800F0BAF803B4FFF7F2FF54
:1001600003BC00F0BBF8000009488047094800477D
:10017000FEE7FEE7FEE7FEE7FEE7FEE7FEE7FEE757
:10018000FEE7FEE704480549034A054B70470000B7
:1001900001030000CD00000068000010680200109C
:1001A00068000010002100E0491C8142FCD3704728
:1001B00008B54FF000501F4908604FF400101E4969
:1001C000486035E00020009021E0009801F04AFAF4
:1001D000804600F0F1FC06460022184B00F076FD48
:1001E00004460022164B01F049F8824600F0B2FFA7
:1001F000800114490860009801F034FA0646124A5A
:10020000124B00F063FD044600F02EFD00900098B4
:1002100001F028FA04460E4A0E4B00F0F3FFD4D347
:1002200047F6C070074908604FF44030FFF7BAFF47
:10023000C8E70000C4C00F4000C002400000F03F0B
:1002400000F07F4000C008407B14AE47E17A843F55
:100250001F85EB51B81E194070477047704710B5A5
:1002600000F008F8006810BD10B5044600F002F870
:10027000046010BD0048704704000010004870473B
:10028000040000107546FFF7F9FFAE460500694609
:10029000534620F00700854618B020B5FFF772FFDF
:1002A000BDE820404FF000064FF000074FF0000877
:1002B0004FF0000B21F00701AC46ACE8C009ACE8F8
:1002C000C009ACE8C009ACE8C0098D4670470446D7
:1002D000AFF300802046FFF740FF000001491820DF
:1002E000ABBEFEE72600020070470000024A002075
:1002F000110701F05FBA000001FDFFFFFFFFFFFFE4
:1003000000202021884A116000BF8749096811F048
:10031000400FFAD00321854A11604FF00001844A52
:10032000C2F8A811834A11604FF00101824A11609E
:100330004FF00B01814A11604FF00101A2F104025C
:1003400011604FF0AA017E4A11604FF05501784AC2
:10035000C2F88C1078490968022906D000BF794993
:10036000096811F0806FFAD004E0002000E0401C22
:100370006428FCD90321744A11604FF0AA016C4A29
:10038000C2F88C104FF055016D4A11604FF02301F7
:100390006E4A11604FF00101A2F1040211604FF0AA
:1003A000AA016B4A11604FF05501116000BF694905
:1003B000096811F4806FFAD00321674A11604FF089
:1003C000AA015B4AC2F8AC104FF05501604A1160B7
:1003D0006249634A11604FF00001624A116043F2C2
:1003E0003A01534A1160704756480068C0F30160F3
:1003F000032868D15048006810F0030006D0012897
:1004000023D002283FD003285CD100E000BF4D4834
:100410000068C0F30E0000F101004FEA40014448BB
:10042000D0F88800C0F3074000F10100B1FBF0F004
:100430004D4900FB01F03D490968C9B201F10101D4
:10044000B0FBF1F0494908603CE03E480068C0F369
:100450000E0000F101004FEA40013548D0F8880055
:10046000C0F3074000F10100B1FBF0F0404900FB90
:1004700001F02E490968C9B201F10101B0FBF1F0A8
:100480003A4908601EE02F480068C0F30E0000F1F2
:1004900001004FEA40012648D0F88800C0F3074029
:1004A00000F10100B1FBF0F04FF4FA4100FB01F064
:1004B0001E490968C9B201F10101B0FBF1F02B49F5
:1004C000086000BF2FE01C48006810F0030006D051
:1004D000012810D0022819D0032823D100E000BF42
:1004E00012480068C0B200F101001F49B1FBF0F0F2
:1004F0001E49086016E00D480068C0B200F1010016
:100500001B49B1FBF0F0194908600BE0074800688F
:10051000C0B200F101004FF4FA41B1FBF0F0134911
:10052000086000BF00BF7047A0C10F4004C10F406A
:1005300000C00F40ACC10F400CC10F4084C00F4041
:100540008CC00F4088C00F4080C00F40A4C00F4037
:10055000ACC00F40A8C00F40A0C00F40DE872804E9
:10056000C4C00F40C8C10F4000093D00000000108A
:10057000001BB700490050EAC12018BF04204A0DF3
:1005800018BF40F0010040F2FF72B2EB515F08BFAC
:1005900040F00200012808BF052070472DE9F74F01
:1005A000144696B00021C4E902111799089121F070
:1005B0000045CA498D4206DC1799C4E9000119B00B
:1005C0000020BDE8F08FC649DFF818A3A9423CDD42
:1005D0000899C54E0029C54FC54A1799534619DDDC
:1005E00000F056FF554506D0C24AC34B00F050FFFD
:1005F000C4E900010AE04FF0D352BF4B00F048FFBE
:1006000032463B4600F044FFC4E9000119B0012026
:10061000BDE8F08F00F05AFB554506D0B54AB64B01
:1006200000F054FBC4E900010AE04FF0D352B24B92
:1006300000F04CFB32463B4600F048FBC4E90001A9
:1006400019B04FF0FF30BDE8F08FAC49A9421799BF
:1006500078DB21F000488346A94AAA4B414600F0C6
:100660000DFE0022A84B00F031FB00F043FD099085
:1006700000F09DFD06460F469D4A534600F0FEFDE4
:100680005A46434600F0F8FE80468A46994A9A4BFD
:100690003046394600F0F2FD2A0D01250B92424604
:1006A000534600F0E9FE032DC4E9000139D00B9850
:1006B000C1F30A51401A05EB45111139814230DA74
:1006C0009248C346784400EB0510CDF81CA00C906E
:1006D000D0E900233046394600F0D0FDCDE90201D3
:1006E00002460B465846079900F0D2FE80468A46DD
:1006F00002460B465846079900F0CAFEDDE9022380
:1007000000F0C6FE83460C9803913946D0E90223D7
:10071000304600F0B3FD5A46039B00F0B9FE6D1C55
:10072000BDE708980028A2BF099819B0BDE8F08F6E
:10073000616881F000416160099819B04042BDE8EC
:10074000F08FFFE7C1F3130141F480110E91179967
:10075000C1F30A51A1F2F532511102F01F08C8F19C
:100760002002129200220C920D92694A7A4402EB06
:10077000810101F1140C0DA95FF00607DCF80020DF
:10078000DCF8045002FA08F3129AD1F800A025FA16
:1007900002F21A430E9BA2FB0356A2FB00329A44BC
:1007A00015449A4534BF4FF0010B4FF0000B51F840
:1007B000043C05EB0B0E7344954234BF012200222A
:1007C0001644BBF1000F02D0AB4202D903E0AB42AA
:1007D00001D2012200E000223244C1F800A041E928
:1007E0000223091FACF1040C7F1EC7D10898DDE974
:1007F0000A6500F10050800F11900898099F800051
:1008000000F0D5FC80468A46384600F0E7FC6FF0E1
:100810001D0200F0CFFF07463046059100F0DEFCD8
:100820006FF03D0200F0C6FFCDE90310284600F04E
:10083000D5FC6FF05D0200F0BDFF064602460B4698
:100840000191DDE9031000F041FA3A46059B00F002
:100850003DFA4246534600F039FA00200D468346E1
:100860004246534600F014FE3A46059B00F010FE47
:10087000DDE9033200F00CFE3246019B00F0FCFD86
:10088000DFF89480234A434600F0F8FC06460F4602
:10089000224A234B5846294600F0F0FC32463B469C
:1008A00000F014FA0F4606464FF0A8424346584659
:1008B000294600F0E3FC32463B4600F007FA179A5F
:1008C00012F0004F04D0119A81F00041524211926F
:1008D000C4E90001119819B0BDE8F08FFB21E93F90
:1008E0007CD90240FB21F93F7370032E8A19A33B88
:1008F000000040543163621A61B4D03DFB2139419C
:1009000083C8C96D305FE43F0000E03FA8110000DC
:1009100030110000182D4454FB21F93D3326A61157
:10092000460B113C2DE9FF4D21F0004807460C46CF
:10093000B8F1795F08DA00F0DDFB002801BF002084
:10094000324904B0BDE8F08D3A46234610461946B8
:1009500000F094FC054602462D480E460B46062143
:10096000784400F05DF82A46334600F087FCDDE964
:10097000022382468B463846214600F07FFC04461F
:100980000F4652465B462846314600F077FC224629
:100990003B4600F07DFD07468A464FF0FF32284671
:1009A000314600F007FF1B4A90450ADA3A465346A3
:1009B00000F06EFD04B00022BDE8F04D134B00F0D6
:1009C0005BBD154A4245A8BFA8F500154FF00004CD
:1009D000B8BF124D22462B4600F05AFD0646884607
:1009E00022462B460020094900F052FD04460D46E0
:1009F0003A4653463046414600F04AFD04B022468E
:100A00002B46BDE8F04D00F037BD00000000F03F80
:100A1000DC0E00003333D33F0000E93F0000D23F3B
:100A20002DE9F0414F1E00EBC7010446D1E900015A
:100A300015461E4637F006020DD02A46334600F012
:100A40001DFC7F1E04EBC703D3E9002300F03EF931
:100A500037F00602F1D1022F25D0042F13D0062F34
:100A600018BFBDE8F0812A46334600F007FCD4E900
:100A70000A2300F02BF92A46334600F0FFFBD4E9A5
:100A8000082300F023F92A46334600F0F7FBD4E9A7
:100A9000062300F01BF92A46334600F0EFFBD4E9A9
:100AA000042300F013F92A46334600F0E7FBD4E9AB
:100AB000022300F00BF92A46334600F0DFFBD4E9AD
:100AC0000023BDE8F04100F001B900002DE9FF4D21
:100AD000054621F0004084B00C46B0F1795F0BDA96
:100AE0002846FFF747FD042808BFFFF7FFFB28460D
:100AF00008B02146BDE8F08D2A460B46104600F0AE
:100B0000BDFB06460F462A46234600F0B7FB80464B
:100B100026488A4632463B4605217844FFF780FF47
:100B200083461098029160B3214A224B40465146B9
:100B300000F0A4FBCDE900015A4640465146029B15
:100B400000F09CFB82468846DDE906014FF0FF324B
:100B500000F030FE5246434600F09AFC32463B46D7
:100B600000F08CFBDDE9062300F092FCDDE90023B8
:100B700000F08EFC08B02A462346BDE8F04D00F098
:100B80007BBC0B465A463046394600F077FB084A94
:100B9000084B00F09BF84246534600F06FFB08B04C
:100BA0002A462346BDE8F04D00F090B81A0E00002A
:100BB000495555555555C5BF00B5294B21F0004243
:100BC00087B09A4203DC00221346009233E0254BA3
:100BD0009A420DD168B94FF00100FFF745FB0022A2
:100BE00007B01346104611465DF804EB00F02AB931
:100BF00006DB07B04FF001025DF804EB00F0DABD50
:100C000002AAFFF7CBFC10F003014FF001000DD05A
:100C1000012914D002291AD00DF1080CBCE80F00EC
:100C2000FFF780FE07B081F0004100BD0DF1080C18
:100C30000090BCE80F00FFF749FF07B000BD0DF1C1
:100C4000080CBCE80F00FFF76DFE07B000BD0DF10A
:100C5000080C0090BCE80F00FFF738FFE2E7000047
:100C6000FB21E93F0000F07F21F00042A2F1605239
:100C7000B2F5801F01F0004328BFD2F17F6C0BD981
:100C80005FEA001C43EAC20242EB507018BF704793
:100C900028BF20F001007047B2F5801FBCBF184686
:100CA00070474FEA410C1CF5001F02D2084600F0C5
:100CB0004ABD70B500F08CFB00000089FFF7F6BF5D
:100CC0004FF00040A0F580007047000010B591EA99
:100CD000030F48BF83F0004300F1E283841A71EBF5
:100CE000030C05D2121943EB0C03001B61EB0C0142
:100CF000DFF824E14FEA1154A4EB135C1EEA430F22
:100D000018BF9EEA445F73D023EA0E03DCF1200E85
:100D100021EA045143F4801332D322FA0CFE10EB83
:100D20000E0023FA0CFE41EB0E01CCF1200E03FA6B
:100D30000EFE10EB0E0051F10001B1F5801FCCF159
:100D4000200E32D201EB045112FA0EF2BDE810402F
:100D500058BF7047401C38BF5FEA420218BF704757
:100D6000002814BF20F0010041F100014FEA4103C7
:100D700013F5001F38BF7047A1F1C04100F076BBEA
:100D8000012A43EB0302ACF1200CDCF11F0E32BF51
:100D90004FF0000E23FA0CF310EB030041EB04516B
:100DA000B4EB115FD0D0A1EB045101F580114908DB
:100DB0005FEA300001EB04510ED350F1000038BF60
:100DC00012FA0EFE08D1BDE81040C9E7401C38BF3A
:100DD0005FEA4202CAD1C3E7BDE810404FEA4103CF
:100DE00013F5001F38BF7047A1F1C04100F03EBBB2
:100DF0009EEA445F08D011EA5E0FBDE8104004BFD0
:100E000001F0004100207047BDE8104070B500F0CF
:100E1000DFFA00BF64FBBE3E0000E0FF02494FF076
:100E2000000000F095BC00BF0000F87F491058BFDB
:100E3000C1F140415B1058BFC3F140438B42EFF317
:100E4000008070472DE9C04130B4DFF8A0C23CEA11
:100E5000111418BF3CEA131400F0EC8081EA03057A
:100E60001CEA111444EAD57418BF1CEA131500F0EB
:100E7000C780A4EB05044FF0004545EAC12145EACF
:100E8000C32341EA505143EA525304F17F7499421B
:100E900004F500344FEAC0204FEAC22208BF904256
:100EA00000F09C804FEA13650FF24016765D4FEA22
:100EB000134506FB05F7C7F1807706FB07F74FEAF6
:100EC000D737A7FB03687642C8F58038A7FB06CE64
:100ED00038BFA8F1010807FB08E64FF0000EA6FB9B
:100EE000028CE6FB03CEDCF1000CCEF1004E38BFE5
:100EF000AEF1010EA6FB0C584FF000074FF00005B5
:100F0000E6FB0E87A1FB08C6A0FB07CE16EB0E067C
:100F100045F10005E1FB076515F1E04E7EBFA4F544
:100F200080345FEA46066D4116F1800745F1000501
:100F30004FEA17274FEA066647EA0567A6F1DE463D
:100F4000B6F1805F4FEA15251FD9384624F0010C11
:100F500005EBC471BCF1FE6F01EB0C1102D8F0BCC3
:100F6000BDE8008124425CBF01F5801E9EEAC47F7B
:100F700002D4F0BCBDE80081244238D4F0BCA1F119
:100F8000C041BDE8004100F071BA4FEAD22242EA06
:100F900043524FEAD323A7FB02864FEAD02040EA10
:100FA000415007FB03661EEA0E0F4FEAD12105FBF5
:100FB000026658BFA6EB0056B6EB00564FEA520E3B
:100FC0004EEAC37E18EB0E0E56EB530EBDD518EB52
:100FD00002085E417F1C55F10005B6E74FF480150D
:100FE0004FF000074FF000064FF00008ADE7F0BCEF
:100FF0004FF0000001F1C04101F00041BDE8008167
:1010000011EA0C1F0CEA131500D00CE013EA0C1FB8
:1010100000F025804FF00000F0BC81EA030101F0F0
:101020000041BDE80081F0BCBDE8004181EA030158
:1010300000F01CBAF0BCBDE8004170B500F0C8F982
:10104000097EFC3E00F007B881EA03014FF0000082
:1010500001F00041704781EA030100F007BAF0BCDB
:10106000BDE800414FF0000021497047FFFDFBF94A
:10107000F7F5F4F2F0EEEDEBE9E8E6E4E3E1E0DECB
:10108000DDDBDAD8D7D5D4D3D1D0CFCDCCCBCAC83D
:10109000C7C6C5C4C2C1C0BFBEBDBCBBBAB9B8B764
:1010A000B6B5B4B3B2B1B0AFAEADACABAAA9A8A857
:1010B000A7A6A5A4A3A3A2A1A09F9F9E9D9C9C9B25
:1010C0009A999998979796959594939392919190D0
:1010D0008F8F8E8E8D8C8C8B8B8A89898888878761
:1010E0008685858484838382828181800000FF07D6
:1010F0000000F87F4FEA41034FEA5353A3F58063A2
:10110000D3F11E03C8BFD3F1210C0CDD4FF0004218
:1011100042EAC12242EA505232FA03FC8CEAE17CF4
:10112000ACEBE1707047102BC4BF0020704703F593
:10113000787CBCF1FF3F04D06FF0004282EA2100CE
:10114000704770B500F044F9499224800020704740
:10115000F2E700004FEA1153A3F58063D3F11E03B9
:10116000A8BFD3F1200C08DB4FF0004242EAC122B5
:1011700052EA505232FA03F0704709420BD4102B56
:10118000C4BF0020704703F5787CBCF1FF3F05D059
:101190004FF0FF3070474FF00000704770B500F01F
:1011A00017F900BF4992248000207047F0E710F043
:1011B000004248BF4042B0FA80F310FA03F10AD06F
:1011C000C3F11D0303F580634FEA415002EB035264
:1011D00002EBD12170474FF000007047B0FA80F366
:1011E00010FA03F10AD0C3F11D0303F580634FEA3F
:1011F00041504FEA035202EBD12170474FF00000FB
:101200007047000051EA030C17D41CF5801F58BF2B
:10121000BCF5801F00F10680994218BF704708BFD7
:101220009042704707D711F5801F58BF13F5801FF4
:1012300019D499427047894270471CF5801F08D520
:10124000BCF5801FF7D58B4218BF704708BF82429C
:1012500070474FF4001C1CEB410F38BF1CEB430FD1
:1012600001D28B42704770B500F0B2F89224490069
:101270004FF000514FF08053FFF7D8BDDFF848C161
:1012800070B51CEA111E1EBF1CEA13159EEA0C0F56
:1012900095EA0C0F00F06F8081EA030423EA4C13F7
:1012A0004EEAD47E21EA4C1141F4801143F48013BC
:1012B000AE44A1FB024CA0FB0365AEF17F7E361964
:1012C00055EB0C05A1FB034C4CF10003A0FB021CE9
:1012D00016EB0C06654153F10003094218BF46F0B6
:1012E000010613F4007F0BD14FEA03314FEA0530BA
:1012F000340341EA155140EA16506FF003020AE048
:101300004FEAC3214FEAC520F40241EA555140EAB1
:1013100056506FF0020202EB2E4201EB025585EAB5
:10132000CE710AD05FEA440C18BF24F0004450F19B
:10133000000041F1000120EAD47040F2FE7C6245D9
:1013400000D270BDA84214BF4FF080444FF040441B
:10135000002E08BF0024BEF1806FA8BFA1F1C041DC
:10136000BDE8704080F282804FF0000001F1C04182
:1013700001F0004170479EEA0C0F0CEA131518BFEC
:1013800095EA0C0F06D04FF0000081EA030E0EF034
:10139000004170BD00F01CF88900013E00F007B864
:1013A00000F009B84FEA430C5FEA5C5C08D081EAC0
:1013B000030100F05BB84FEA410C5FEA5C5CF6D1D8
:1013C0004FF00000014970470000FF070000F87F60
:1013D0000EF1020E2EF0030E5EF8046B364205D4B9
:1013E000012A43EB030515F5001F12D8012841EB34
:1013F000010C1CF5001F0CD80ED14FEAD17C15F55D
:10140000001F0CEB4C0C0CF1020C08BF4CEBD37C16
:1014100004E04FF0080C01E04FEAD37C0CEB4C05E4
:1014200026FA05F606F00706B6F1040C06D20EEB16
:10143000860CBDE870404CF0010C6047DFE80CF012
:10144000090B02024FF000414FF00000A1F500210E
:1014500070BD19461046012851EB010418BFD4F5A0
:10146000001484BF002001F0004170BD0808A0F501
:1014700000114FEA3101704791EA030F10B581F076
:1014800000413FF52BAC83F0004300F009B80000A9
:1014900010B591EA030F48BF83F000433FF51EAC3F
:1014A000841A71EB030C07D212198CF0004C43EB39
:1014B0000C03001B61EB0C01DFF8A4E14FEA1154AF
:1014C000A4EB135C1EEA430F18BF9EEA445F00F0D2
:1014D000B08023EA6E03524221EA0451C3EB6E034B
:1014E00038BF5B1EDCF1200E25D322FA0CFE10EB78
:1014F0000E0043FA0CFE41EB0E01CCF1200E03FA74
:101500000EFE10EB0E0051F10001CCF1200E29D49B
:1015100012FA0EF201EB0451BDE8104058BF7047BB
:10152000401C1CBFB2F1004F704700280CBF491C83
:1015300020F00100704712EB020E43EB030218BFCC
:101540004FF0010E4EEA4202ACF1200CDCF11E0E0F
:1015500054D943FA0CFE10EB0E0051F1FF31CCF1DF
:101560001E0ED5D50EF1010E12FA0EFE404141EBD2
:10157000010101EB445C5FEA5C5C10D910EBDE70AA
:1015800001EB045138BFBEF1004FBDE8104018BF59
:10159000704700280CBF491C20F00100704730D272
:1015A0004FEAD42C11F5001124F400641BD0B1FAD9
:1015B00081F20B3AA41AA41ED2F12003914030FA12
:1015C00003F31943904001EBCC71002C01EB045163
:1015D000BDE81040A8BF704701F1C0414FF00000C6
:1015E00001F000417047B0FA80F310FA03F100D126
:1015F00010BDE41A173C4805C90AE4E701EB0451A1
:1016000010BD491001EB0451BDE810404FEA300015
:1016100002E04FF0000170474A0008BF0042F8D0D6
:10162000B2F5001F28BF704701F000414FF00000E5
:1016300070479EEA445F07D011EA5E0FBDE8104094
:1016400004BF002100207047BDE8104070B5FFF7CF
:10165000BFFE00BF40DFF63E83F0004110467047FA
:101660000000E0FF43004FEAD30C4FEA3C0C43403C
:101670001FBF40070CF1605113F0FE4F70471CF084
:10168000006F03D100200CF0004170470CF00043C4
:1016900043EA507010B540EACC0000F00EF800BFED
:1016A000000000924FEA0001FFF7E0BE4FF000415A
:1016B0004FF00000A1F5002170470EF1020E2EF050
:1016C000030E5EF8044B244204D44FEA4102B2F107
:1016D0007F4F11D84FEA4003B3F17F4F0CD80ED1A2
:1016E0004FEAD07CB2F17F4F0CEB4C0C0CF1020CAA
:1016F00008BF4CEBD17C04E04FF0080C01E04FEA4E
:10170000D17C0CEB4C0324FA03F404F00704B4F18D
:10171000040C06D20EEB840CBDE810404CF0010C1A
:101720006047DFE80CF0070802024FF00040A0F528
:10173000800010BD0846420018BFD2F1807288BFF9
:1017400000F0004010BDFF2141EAD050C0057047B5
:101750000CF00F03092B08BF082000F059800A2B5A
:101760000BD0082B18BF704708BF1CF0400F0AD0E1
:101770004FF000004FF0000170471CF0400F18BF01
:101780004FF0004070471CF0100F08D020F070435D
:1017900000F07F4242EAD3014FEA4370704700F005
:1017A000604021F07F4242EA000201F07F4040EABF
:1017B000727070474FF0FF0C4CF4E06C1CEA115350
:1017C0001CBF9CEA030C9445C2BFDA4201EB0251F4
:1017D0007047002B0DD0BCF1000F0FD0002A01F094
:1017E0000041A4BF41F0E04141F07F614FF00000B3
:1017F000704701F000414FF00000704750EA01339C
:101800004FF09B0C18BF4CF0806C7FF407AB704717
:101810001CF4801F11D01CF4E02F03D06FEACC31F0
:10182000490070474FF04050EFF3008222F07042C1
:1018300042EA000282F3008870474FF000007047D0
:101840004C5555555555A53F7751C1166CC156BFDE
:101850009015CB19A001FA3EAD529C804F7E92BEEE
:10186000C4B1B4BD9EEE213ED43888BEE9FAA8BD0D
:1018700000004054FB21F93F3163621A61B4D03D4E
:101880000000601A61B4D03D7370032E8A19A33B27
:101890000000002E8A19A33BC14920259A837B3979
:1018A00000000000000000006E83F9A22915444EDC
:1018B000D15727FCC0DD34F5999562DB4190433C5C
:1018C000AB6351FE61C5BBDE3A6E24B7E0D24D4238
:1018D000EA2E49061C92D1091CEB1DFE3EA729B138
:1018E000F53582E88444BB2E26709CE9417E5FB4C6
:1018F00039D69139F43953838B5F849C3B28F9BDE9
:10190000FF97F81F0F9805DE8B112FEF1F6D0A5AF6
:10191000CF7E366DB709CB27663F464F2DEA5F9ED7
:10192000C7BA27757BF1E5EBF739073DEA92528A92
:10193000B15FFB6B085D8D1FA6F810111111813F7F
:10194000D561C119A0012ABF7DFEB157E31DC73E75
:10195000EB9C2B8AE6E55ABE7CD5CF5A3AD9E53DB9
:1019600080190000000000100400000008010000C1
:10197000841900000400001064020000240100002B
:0419800000093D001D
:04000005000001698D
:00000001FF
