:020000040000FA
:100000006802001069010000710100007301000026
:100010007501000077010000790100000000000078
:100020000000000000000000000000007B01000054
:100030007D010000000000007F0100008101000040
:1000400083010000830100008301000083010000A0
:100050008301000083010000830100008301000090
:100060008301000083010000830100008301000080
:100070008301000083010000830100008301000070
:100080008301000083010000830100008301000060
:100090008301000083010000830100008301000050
:1000A0008301000083010000830100008301000040
:1000B0008301000083010000830100008301000030
:1000C00083010000830100008301000000F002F8BA
:1000D00000F03AF80AA090E8000C82448344AAF1A8
:1000E0000107DA4501D100F02FF8AFF2090EBAE8A6
:1000F0000F0013F0010F18BFFB1A43F0010318475C
:10010000F816000018170000103A24BF78C878C10C
:10011000FAD8520724BF30C830C144BF04680C600D
:10012000704700000023002400250026103A28BF55
:1001300078C1FBD8520728BF30C148BF0B60704759
:100140001FB51FBD10B510BD00F014FA1146FFF722
:10015000F7FF00F02DF800F032FA03B4FFF7F2FFDA
:1001600003BC00F033FA0000094880470948004703
:10017000FEE7FEE7FEE7FEE7FEE7FEE7FEE7FEE757
:10018000FEE7FEE704480549034A054B70470000B7
:1001900001030000CD00000068000010680200109C
:1001A00068000010002100E0491C8142FCD3704728
:1001B00086B04FF40010404948607CE000203F4981
:1001C00008604FF4A060FFF7EDFF47F6C0703B49B1
:1001D00008604FF40050FFF7E5FF002425E02046BB
:1001E00000F0FAFF0546364A364B01F009F80022C6
:1001F000354BCDE9000100F023FECDE9020100F00E
:1002000017FD82460022314B00F0FAFF074600221C
:100210002E4B00F065FDCDE9040100F099FF814609
:100220004FEA891025490860641C322CD7D34C460C
:1002300003E0A00121490860641C40F2FF308442C1
:10024000F7D3044603E0A0011C490860641E4C4536
:10025000F9D8322425E0204600F0BEFF184A194B99
:10026000CDE9000100F0CCFF07460022164B00F05C
:10027000E7FDCDE9020100F0DBFC05460022134B4F
:1002800000F0BEFF82460022104B00F029FDCDE9B0
:10029000040100F05DFF81464FEA891007490860BC
:1002A000641E002CD7D147F6C070044908604FF493
:1002B0000050FFF777FF81E700C0024000C0084010
:1002C000363CBD52962109400080664000F07F40D8
:1002D00070477047704710B500F008F8006810BD0F
:1002E00010B5044600F002F8046010BD00487047E5
:1002F000040000100048704704000010FFFFFFFFDB
:1003000000202021884A116000BF8749096811F048
:10031000400FFAD00321854A11604FF00001844A52
:10032000C2F8A811834A11604FF00101824A11609E
:100330004FF00B01814A11604FF00101A2F104025C
:1003400011604FF0AA017E4A11604FF05501784AC2
:10035000C2F88C1078490968022906D000BF794993
:10036000096811F0806FFAD004E0002000E0401C22
:100370006428FCD90321744A11604FF0AA016C4A29
:10038000C2F88C104FF055016D4A11604FF02301F7
:100390006E4A11604FF00101A2F1040211604FF0AA
:1003A000AA016B4A11604FF05501116000BF694905
:1003B000096811F4806FFAD00321674A11604FF089
:1003C000AA015B4AC2F8AC104FF05501604A1160B7
:1003D0006249634A11604FF00001624A116043F2C2
:1003E0003A01534A1160704756480068C0F30160F3
:1003F000032868D15048006810F0030006D0012897
:1004000023D002283FD003285CD100E000BF4D4834
:100410000068C0F30E0000F101004FEA40014448BB
:10042000D0F88800C0F3074000F10100B1FBF0F004
:100430004D4900FB01F03D490968C9B201F10101D4
:10044000B0FBF1F0494908603CE03E480068C0F369
:100450000E0000F101004FEA40013548D0F8880055
:10046000C0F3074000F10100B1FBF0F0404900FB90
:1004700001F02E490968C9B201F10101B0FBF1F0A8
:100480003A4908601EE02F480068C0F30E0000F1F2
:1004900001004FEA40012648D0F88800C0F3074029
:1004A00000F10100B1FBF0F04FF4FA4100FB01F064
:1004B0001E490968C9B201F10101B0FBF1F02B49F5
:1004C000086000BF2FE01C48006810F0030006D051
:1004D000012810D0022819D0032823D100E000BF42
:1004E00012480068C0B200F101001F49B1FBF0F0F2
:1004F0001E49086016E00D480068C0B200F1010016
:100500001B49B1FBF0F0194908600BE0074800688F
:10051000C0B200F101004FF4FA41B1FBF0F0134911
:10052000086000BF00BF7047A0C10F4004C10F406A
:1005300000C00F40ACC10F400CC10F4084C00F4041
:100540008CC00F4088C00F4080C00F40A4C00F4037
:10055000ACC00F40A8C00F40A0C00F40DE872804E9
:10056000C4C00F40C8C10F4000093D00000000108A
:10057000001BB7007546FFF7BDFEAE460500694695
:10058000534620F00700854618B020B5FFF7FAFD66
:10059000BDE820404FF000064FF000074FF0000884
:1005A0004FF0000B21F00701AC46ACE8C009ACE805
:1005B000C009ACE8C009ACE8C0098D4670470446E4
:1005C000AFF300802046FFF7C8FD00000149182066
:1005D000ABBEFEE7260002007047490050EAC1208A
:1005E00018BF04204A0D18BF40F0010040F2FF720E
:1005F000B2EB515F08BF40F00200012808BF0520A0
:10060000704700002DE9F74F144696B00021C4E969
:1006100002111799089121F00045CA498D4206DC64
:100620001799C4E9000119B00020BDE8F08FC64950
:10063000DFF818A3A9423CDD0899C54E0029C54F33
:10064000C54A1799534619DD00F0E4FE554506D01A
:10065000C24AC34B00F0DEFEC4E900010AE04FF0DD
:10066000D352BF4B00F0D6FE32463B4600F0D2FEDE
:10067000C4E9000119B00120BDE8F08F00F030FBA3
:10068000554506D0B54AB64B00F02AFBC4E9000137
:100690000AE04FF0D352B24B00F022FB32463B4609
:1006A00000F01EFBC4E9000119B04FF0FF30BDE8B7
:1006B000F08FAC49A942179978DB21F000488346B6
:1006C000A94AAA4B414600F09BFD0022A84B00F02E
:1006D00007FB00F00DFD099000F067FD06460F4690
:1006E0009D4A534600F08CFD5A46434600F086FE74
:1006F00080468A46994A9A4B3046394600F080FD3A
:100700002A0D01250B924246534600F077FE032D39
:10071000C4E9000139D00B98C1F30A51401A05EB26
:1007200045111139814230DA9248C346784400EBD2
:100730000510CDF81CA00C90D0E9002330463946B6
:1007400000F05EFDCDE9020102460B4658460799CE
:1007500000F060FE80468A4602460B4658460799DE
:1007600000F058FEDDE9022300F054FE83460C98A9
:1007700003913946D0E90223304600F041FD5A4644
:10078000039B00F047FE6D1CBDE708980028A2BF40
:10079000099819B0BDE8F08F616881F0004161608F
:1007A000099819B04042BDE8F08FFFE7C1F313018B
:1007B00041F480110E911799C1F30A51A1F2F5325B
:1007C000511102F01F08C8F12002129200220C926F
:1007D0000D92694A7A4402EB810101F1140C0DA9D2
:1007E0005FF00607DCF80020DCF8045002FA08F39A
:1007F000129AD1F800A025FA02F21A430E9BA2FB2E
:100800000356A2FB00329A4415449A4534BF4FF078
:10081000010B4FF0000B51F8043C05EB0B0E734439
:10082000954234BF012200221644BBF1000F02D0D2
:10083000AB4202D903E0AB4201D2012200E0002228
:100840003244C1F800A041E90223091FACF1040CB5
:100850007F1EC7D10898DDE90A6500F10050800FBE
:1008600011900898099F800000F09FFC80468A46FE
:10087000384600F0B1FC6FF01D0200F0E7FE0746BD
:100880003046059100F0A8FC6FF03D0200F0DEFE5E
:10089000CDE90310284600F09FFC6FF05D0200F0E8
:1008A000D5FE064602460B460191DDE9031000F035
:1008B00017FA3A46059B00F013FA4246534600F0F9
:1008C0000FFA00200D4683464246534600F0A2FD33
:1008D0003A46059B00F09EFDDDE9033200F09AFDEB
:1008E0003246019B00F08AFDDFF89480234A43469C
:1008F00000F086FC06460F46224A234B58462946FE
:1009000000F07EFC32463B4600F0EAF90F46064610
:100910004FF0A84243465846294600F071FC324643
:100920003B4600F0DDF9179A12F0004F04D0119AFF
:1009300081F0004152421192C4E90001119819B0AE
:10094000BDE8F08FFB21E93F7CD90240FB21F93F54
:100950007370032E8A19A33B000040543163621A5E
:1009600061B4D03DFB21394183C8C96D305FE43F9C
:100970000000E03FD80F0000600F0000182D445425
:10098000FB21F93D3326A611460B113C2DE9FF4D05
:1009900021F0004807460C46B8F1795F08DA00F00C
:1009A000A7FB002801BF0020324904B0BDE8F08D4C
:1009B0003A4623461046194600F022FC05460246F8
:1009C0002D480E460B460621784400F05DF82A4675
:1009D000334600F015FCDDE9022382468B4638469B
:1009E000214600F00DFC04460F4652465B46284661
:1009F000314600F005FC22463B4600F00BFD074661
:100A00008A464FF0FF322846314600F01FFE1B4A4F
:100A100090450ADA3A46534600F0FCFC04B0002246
:100A2000BDE8F04D134B00F0E9BC154A4245A8BFA4
:100A3000A8F500154FF00004B8BF124D22462B4612
:100A400000F0E8FC0646884622462B46002009496D
:100A500000F0E0FC04460D463A4653463046414617
:100A600000F0D8FC04B022462B46BDE8F04D00F063
:100A7000C5BC00000000F03F0C0D00003333D33F35
:100A80000000E93F0000D23F2DE9F0414F1E00EB8E
:100A9000C7010446D1E9000115461E4637F006029B
:100AA0000DD02A46334600F0ABFB7F1E04EBC70394
:100AB000D3E9002300F014F937F00602F1D1022F38
:100AC00025D0042F13D0062F18BFBDE8F0812A4689
:100AD000334600F095FBD4E90A2300F001F92A46D9
:100AE000334600F08DFBD4E9082300F0F9F82A46DC
:100AF000334600F085FBD4E9062300F0F1F82A46DE
:100B0000334600F07DFBD4E9042300F0E9F82A46DF
:100B1000334600F075FBD4E9022300F0E1F82A46E1
:100B2000334600F06DFBD4E90023BDE8F04100F04E
:100B3000D7B800002DE9FF4D054621F0004084B0F4
:100B40000C46B0F1795F0BDA2846FFF746FD042822
:100B500008BF00F065F8284608B02146BDE8F08DD2
:100B60002A460B46104600F04BFB06460F462A4627
:100B7000234600F045FB804626488A4632463B46DF
:100B800005217844FFF780FF83461098029160B3F7
:100B9000214A224B4046514600F032FBCDE900018C
:100BA0005A4640465146029B00F02AFB8246884640
:100BB000DDE906014FF0FF3200F048FD52464346A2
:100BC00000F028FC32463B4600F01AFBDDE9062324
:100BD00000F020FCDDE9002300F01CFC08B02A46F0
:100BE0002346BDE8F04D00F009BC0B465A4630469E
:100BF000394600F005FB084A084B00F071F8424600
:100C0000534600F0FDFA08B02A462346BDE8F04DF1
:100C100000F066B84A0C0000495555555555C5BFFA
:100C2000024A0020110700F011BD000001FDFFFF86
:100C300000B5294B21F0004287B09A4203DC002224
:100C40001346009233E0254B9A420DD168B94FF01C
:100C50000100FFF745FB002207B01346104611467E
:100C60005DF804EB00F0ECB806DB07B04FF00102D2
:100C70005DF804EB00F0EABC02AAFFF7C3FC10F039
:100C800003014FF001000DD0012914D002291AD020
:100C90000DF1080CBCE80F00FFF778FE07B081F0FB
:100CA000004100BD0DF1080C0090BCE80F00FFF7FB
:100CB00041FF07B000BD0DF1080CBCE80F00FFF7C5
:100CC00065FE07B000BD0DF1080C0090BCE80F00F8
:100CD000FFF730FFE2E70000FB21E93F0000F07F73
:100CE00010B591EA030F48BF83F0004300F19A83E7
:100CF000841A71EB030C05D2121943EB0C03001B91
:100D000061EB0C01DFF824E14FEA1154A4EB135C12
:100D10001EEA430F18BF9EEA445F73D023EA0E0316
:100D2000DCF1200E21EA045143F4801332D322FA7D
:100D30000CFE10EB0E0023FA0CFE41EB0E01CCF181
:100D4000200E03FA0EFE10EB0E0051F10001B1F57A
:100D5000801FCCF1200E32D201EB045112FA0EF2B8
:100D6000BDE8104058BF7047401C38BF5FEA4202E0
:100D700018BF7047002814BF20F0010041F10001A6
:100D80004FEA410313F5001F38BF7047A1F1C0417E
:100D900000F02EBB012A43EB0302ACF1200CDCF186
:100DA0001F0E32BF4FF0000E23FA0CF310EB0300BE
:100DB00041EB0451B4EB115FD0D0A1EB045101F52C
:100DC000801149085FEA300001EB04510ED350F165
:100DD000000038BF12FA0EFE08D1BDE81040C9E786
:100DE000401C38BF5FEA4202CAD1C3E7BDE81040E9
:100DF0004FEA410313F5001F38BF7047A1F1C0410E
:100E000000F0F6BA9EEA445F08D011EA5E0FBDE832
:100E1000104004BF01F0004100207047BDE81040C1
:100E200070B500F097FA00BF64FBBE3E0000E0FF23
:100E300002494FF0000000F0D7BB00BF0000F87F70
:100E40002DE9C04130B4DFF8A0C23CEA111418BF4C
:100E50003CEA131400F0EC8081EA03051CEA11144B
:100E600044EAD57418BF1CEA131500F0C780A4EB40
:100E700005044FF0004545EAC12145EAC32341EA94
:100E8000505143EA525304F17F74994204F50034FF
:100E90004FEAC0204FEAC22208BF904200F09C8077
:100EA0004FEA13650FF24016765D4FEA134506FBD5
:100EB00005F7C7F1807706FB07F74FEAD737A7FB9F
:100EC00003687642C8F58038A7FB06CE38BFA8F184
:100ED000010807FB08E64FF0000EA6FB028CE6FBBC
:100EE00003CEDCF1000CCEF1004E38BFAEF1010EA6
:100EF000A6FB0C584FF000074FF00005E6FB0E87ED
:100F0000A1FB08C6A0FB07CE16EB0E0645F10005B7
:100F1000E1FB076515F1E04E7EBFA4F580345FEA82
:100F200046066D4116F1800745F100054FEA172787
:100F30004FEA066647EA0567A6F1DE46B6F1805F2E
:100F40004FEA15251FD9384624F0010C05EBC47172
:100F5000BCF1FE6F01EB0C1102D8F0BCBDE80081C2
:100F600024425CBF01F5801E9EEAC47F02D4F0BC1F
:100F7000BDE80081244238D4F0BCA1F1C041BDE8F5
:100F8000004100F035BA4FEAD22242EA43524FEA1A
:100F9000D323A7FB02864FEAD02040EA415007FB4B
:100FA00003661EEA0E0F4FEAD12105FB026658BF09
:100FB000A6EB0056B6EB00564FEA520E4EEAC37E41
:100FC00018EB0E0E56EB530EBDD518EB02085E4122
:100FD0007F1C55F10005B6E74FF480154FF0000770
:100FE0004FF000064FF00008ADE7F0BC4FF00000F6
:100FF00001F1C04101F00041BDE8008111EA0C1F80
:101000000CEA131500D00CE013EA0C1F00F0258049
:101010004FF00000F0BC81EA030101F00041BDE89F
:101020000081F0BCBDE8004181EA030100F0E0B9B5
:10103000F0BCBDE8004170B500F08CF9097EFC3EC3
:1010400000F007B881EA03014FF0000001F0004111
:10105000704781EA030100F0CBB9F0BCBDE8004164
:101060004FF0000021497047FFFDFBF9F7F5F4F25E
:10107000F0EEEDEBE9E8E6E4E3E1E0DEDDDBDAD833
:10108000D7D5D4D3D1D0CFCDCCCBCAC8C7C6C5C491
:10109000C2C1C0BFBEBDBCBBBAB9B8B7B6B5B4B3A8
:1010A000B2B1B0AFAEADACABAAA9A8A8A7A6A5A493
:1010B000A3A3A2A1A09F9F9E9D9C9C9B9A99999857
:1010C0009797969595949393929191908F8F8E8EFA
:1010D0008D8C8C8B8B8A8989888887878685858487
:1010E00084838382828181800000FF070000F87F73
:1010F0004FEA41034FEA5353A3F58063D3F11E0334
:10110000C8BFD3F1210C0CDD4FF0004242EAC122EE
:1011100042EA505232FA03FC8CEAE17CACEBE1701B
:101120007047102BC4BF0020704703F5787CBCF1DA
:10113000FF3F04D06FF0004282EA2100704770B593
:1011400000F008F94992248000207047F2E700007F
:101150004FEA1153A3F58063D3F11E03A8BFD3F167
:10116000200C08DB4FF0004242EAC12252EA505202
:1011700032FA03F0704709420BD4102BC4BF002091
:10118000704703F5787CBCF1FF3F05D04FF0FF308E
:1011900070474FF00000704770B500F0DBF800BFFB
:1011A0004992248000207047F0E710F0004248BFC9
:1011B0004042B0FA80F310FA03F10AD0C3F11D03E4
:1011C00003F580634FEA415002EB035202EBD12159
:1011D00070474FF000007047B0FA80F310FA03F147
:1011E0000AD0C3F11D0303F580634FEA41504FEA73
:1011F000035202EBD12170474FF00000704700000E
:10120000DFF848C170B51CEA111E1EBF1CEA131599
:101210009EEA0C0F95EA0C0F00F06F8081EA030440
:1012200023EA4C134EEAD47E21EA4C1141F480119A
:1012300043F48013AE44A1FB024CA0FB0365AEF166
:101240007F7E361955EB0C05A1FB034C4CF10003D6
:10125000A0FB021C16EB0C06654153F1000309428A
:1012600018BF46F0010613F4007F0BD14FEA03319B
:101270004FEA0530340341EA155140EA16506FF049
:1012800003020AE04FEAC3214FEAC520F40241EA13
:10129000555140EA56506FF0020202EB2E4201EB2C
:1012A000025585EACE710AD05FEA440C18BF24F0DB
:1012B000004450F1000041F1000120EAD47040F2F6
:1012C000FE7C624500D270BDA84214BF4FF080443E
:1012D0004FF04044002E08BF0024BEF1806FA8BF2D
:1012E000A1F1C041BDE8704080F282804FF0000063
:1012F00001F1C04101F0004170479EEA0C0F0CEA79
:10130000131518BF95EA0C0F06D04FF0000081EAC4
:10131000030E0EF0004170BD00F01CF88900013E84
:1013200000F007B800F009B84FEA430C5FEA5C5CD4
:1013300008D081EA030100F05BB84FEA410C5FEA94
:101340005C5CF6D14FF00000014970470000FF07D8
:101350000000F87F0EF1020E2EF0030E5EF8046B13
:10136000364205D4012A43EB030515F5001F12D8B8
:10137000012841EB010C1CF5001F0CD80ED14FEADF
:10138000D17C15F5001F0CEB4C0C0CF1020C08BFC6
:101390004CEBD37C04E04FF0080C01E04FEAD37C27
:1013A0000CEB4C0526FA05F606F00706B6F1040C20
:1013B00006D20EEB860CBDE870404CF0010C604785
:1013C000DFE80CF0090B02024FF000414FF0000083
:1013D000A1F5002170BD19461046012851EB01040A
:1013E00018BFD4F5001484BF002001F0004170BD87
:1013F0000808A0F500114FEA3101704791EA030F88
:1014000010B581F000413FF573AC83F0004300F06C
:1014100009B8000010B591EA030F48BF83F00043FC
:101420003FF566AC841A71EB030C07D212198CF0ED
:10143000004C43EB0C03001B61EB0C01DFF8A4E153
:101440004FEA1154A4EB135C1EEA430F18BF9EEA47
:10145000445F00F0B08023EA6E03524221EA045157
:10146000C3EB6E0338BF5B1EDCF1200E25D322FADE
:101470000CFE10EB0E0043FA0CFE41EB0E01CCF11A
:10148000200E03FA0EFE10EB0E0051F10001CCF11C
:10149000200E29D412FA0EF201EB0451BDE81040DF
:1014A00058BF7047401C1CBFB2F1004F7047002866
:1014B0000CBF491C20F00100704712EB020E43EBF9
:1014C000030218BF4FF0010E4EEA4202ACF1200CAD
:1014D000DCF11E0E54D943FA0CFE10EB0E0051F154
:1014E000FF31CCF11E0ED5D50EF1010E12FA0EFE13
:1014F000404141EB010101EB445C5FEA5C5C10D9C7
:1015000010EBDE7001EB045138BFBEF1004FBDE8B7
:10151000104018BF704700280CBF491C20F0010084
:10152000704730D24FEAD42C11F5001124F4006436
:101530001BD0B1FA81F20B3AA41AA41ED2F12003F7
:10154000914030FA03F31943904001EBCC71002C29
:1015500001EB0451BDE81040A8BF704701F1C04144
:101560004FF0000001F000417047B0FA80F310FA2C
:1015700003F100D110BDE41A173C4805C90AE4E79D
:1015800001EB045110BD491001EB0451BDE81040BE
:101590004FEA300002E04FF0000170474A0008BFF8
:1015A0000042F8D0B2F5001F28BF704701F000419B
:1015B0004FF0000070479EEA445F07D011EA5E0FCB
:1015C000BDE8104004BF002100207047BDE8104076
:1015D00070B5FFF7BFFE00BF40DFF63E83F000416D
:1015E000104670470000E0FF0CF00F03092B08BF06
:1015F000082000F059800A2B0BD0082B18BF704729
:1016000008BF1CF0400F0AD04FF000004FF000015F
:1016100070471CF0400F18BF4FF0004070471CF09F
:10162000100F08D020F0704300F07F4242EAD3014F
:101630004FEA4370704700F0604021F07F4242EA79
:10164000000201F07F4040EA727070474FF0FF0CDB
:101650004CF4E06C1CEA11531CBF9CEA030C94454B
:10166000C2BFDA4201EB02517047002B0DD0BCF132
:10167000000F0FD0002A01F00041A4BF41F0E0416B
:1016800041F07F614FF00000704701F000414FF0E2
:101690000000704750EA01334FF09B0C18BF4CF02C
:1016A000806C7FF4C5AB70471CF4801F11D01CF414
:1016B000E02F03D06FEACC31490070474FF0405023
:1016C000EFF3008222F0704242EA000282F30088C7
:1016D00070474FF0000070474C5555555555A53F84
:1016E0007751C1166CC156BF9015CB19A001FA3EB7
:1016F000AD529C804F7E92BEC4B1B4BD9EEE213EE1
:10170000D43888BEE9FAA8BD00004054FB21F93F57
:101710003163621A61B4D03D0000601A61B4D03DFB
:101720007370032E8A19A33B0000002E8A19A33B75
:10173000C14920259A837B39000000000000000089
:101740006E83F9A22915444ED15727FCC0DD34F52C
:10175000999562DB4190433CAB6351FE61C5BBDEB2
:101760003A6E24B7E0D24D42EA2E49061C92D109C6
:101770001CEB1DFE3EA729B1F53582E88444BB2E43
:1017800026709CE9417E5FB439D69139F439538390
:101790008B5F849C3B28F9BDFF97F81F0F9805DEEF
:1017A0008B112FEF1F6D0A5ACF7E366DB709CB27ED
:1017B000663F464F2DEA5F9EC7BA27757BF1E5EB82
:1017C000F739073DEA92528AB15FFB6B085D8D1FC6
:1017D000A6F810111111813FD561C119A0012ABFCE
:1017E0007DFEB157E31DC73EEB9C2B8AE6E55ABE52
:1017F0007CD5CF5A3AD9E53D1818000000000010FA
:1018000004000000080100001C1800000400001083
:0C181000640200002401000000093D00FB
:04000005000001698D
:00000001FF
