:020000040000FA
:100000006802001069010000710100007301000026
:100010007501000077010000790100000000000078
:100020000000000000000000000000007B01000054
:100030007D010000000000007F0100008101000040
:1000400083010000830100008301000083010000A0
:100050008301000083010000830100008301000090
:100060008301000083010000830100008301000080
:100070008301000083010000830100008301000070
:100080008301000083010000830100008301000060
:100090008301000083010000830100008301000050
:1000A0008301000083010000830100008301000040
:1000B0008301000083010000830100008301000030
:1000C00083010000830100008301000000F002F8BA
:1000D00000F03AF80AA090E8000C82448344AAF1A8
:1000E0000107DA4501D100F02FF8AFF2090EBAE8A6
:1000F0000F0013F0010F18BFFB1A43F0010318475C
:10010000A4010000C4010000103A24BF78C878C1DF
:10011000FAD8520724BF30C830C144BF04680C600D
:10012000704700000023002400250026103A28BF55
:1001300078C1FBD8520728BF30C148BF0B60704759
:100140001FB51FBD10B510BD00F02FF81146FFF709
:10015000F7FF00F0EFF800F04DF803B4FFF7F2FFFF
:1001600003BC00F051F800000948804709480047E7
:10017000FEE7FEE7FEE7FEE7FEE7FEE7FEE7FEE757
:10018000FEE7FEE704480549034A054B70470000B7
:10019000A1040000CD0000006800001068020010FB
:1001A00068000010704770477047754600F028F8E7
:1001B000AE4605006946534620F00700854618B054
:1001C00020B5FFF7DFFFBDE820404FF000064FF0FD
:1001D00000074FF000084FF0000B21F00701AC467C
:1001E000ACE8C009ACE8C009ACE8C009ACE8C0099B
:1001F0008D4670470446AFF300802046FFF7ADFF01
:10020000004870470400001001491820ABBEFEE70B
:1002100026000200704700004FEA1153A3F58063E7
:10022000D3F11E03A8BFD3F1200C08DB4FF000422E
:1002300042EAC12252EA505232FA03F070470942B0
:100240000BD4102BC4BF0020704703F5787CBCF1A1
:10025000FF3F05D04FF0FF3070474FF00000704770
:1002600070B500F0AFFB00BF4992248000207047BA
:10027000F0E7B0FA80F310FA03F10AD0C3F11D03DE
:1002800003F580634FEA41504FEA035202EBD1215C
:1002900070474FF0000070470808A0F500114FEAC2
:1002A00031017047600A00000000001004000000E7
:1002B00008010000640A000004000010640200004D
:1002C0002401000000000000000000000000000009
:1002D000000000000000000000000000000000001E
:1002E000000000000000000000000000000000000E
:1002F000000000000000000000000000FFFFFFFF02
:10030000002100E0491C8142FCD3704700B5034640
:10031000574803704FF00401564841764FF4A060EF
:10032000FFF7EEFF0421534841774FF4A060FFF739
:10033000E7FF00BD86B050A103C9CDE9040100F07C
:10034000AFF849F208004E4908604FF040404D496F
:10035000C8604D484D4908604FF000004C4981F895
:1003600050004FF0FF004B4908704FF0F801414832
:1003700041744FF00F00464981F821004FF003010E
:100380003C4841774FF0000404E004A9085DFFF702
:10039000BDFF641C052CF8D368E003213548417784
:1003A0000120FFF7B3FF0620FFF7B0FF8020FFF723
:1003B000ADFF01212F48417600BF3448006B00F0AB
:1003C00020002028F9D13148406AC0F30B1A50466A
:1003D000FFF74FFF0746304A304B00F09BF90546C8
:1003E000FFF71AFF8246D14600240AE00A20B9FB33
:1003F000F0F100FB11904DF824000A20B9FBF0F950
:10040000641C032CF2D34DF82490002405E05DF821
:1004100024001E304DF82400641C042CF7D30399EB
:10042000C8B2FFF773FF4FF4A060FFF769FF0299AE
:10043000C8B2FFF76BFF4FF4A060FFF761FF2E20FB
:10044000FFF764FF4FF4A060FFF75AFF0199C8B2AD
:10045000FFF75CFF4FF4A060FFF752FF0099C8B2AE
:10046000FFF754FF4FF4A060FFF74AFF95E7000045
:1004700054C0092020C00920380E06018000000069
:10048000C4C00F4000C002402002210000400340D1
:1004900000C0092040C00920CDCCCCCCCCCC284019
:1004A00000202021884A116000BF8749096811F0A7
:1004B000400FFAD00321854A11604FF00001844AB1
:1004C000C2F8A811834A11604FF00101824A1160FD
:1004D0004FF00B01814A11604FF00101A2F10402BB
:1004E00011604FF0AA017E4A11604FF05501784A21
:1004F000C2F88C1078490968022906D000BF7949F2
:10050000096811F0806FFAD004E0002000E0401C80
:100510006428FCD90321744A11604FF0AA016C4A87
:10052000C2F88C104FF055016D4A11604FF0230155
:100530006E4A11604FF00101A2F1040211604FF008
:10054000AA016B4A11604FF05501116000BF694963
:10055000096811F4806FFAD00321674A11604FF0E7
:10056000AA015B4AC2F8AC104FF05501604A116015
:100570006249634A11604FF00001624A116043F220
:100580003A01534A1160704756480068C0F3016051
:10059000032868D15048006810F0030006D00128F5
:1005A00023D002283FD003285CD100E000BF4D4893
:1005B0000068C0F30E0000F101004FEA400144481A
:1005C000D0F88800C0F3074000F10100B1FBF0F063
:1005D0004D4900FB01F03D490968C9B201F1010133
:1005E000B0FBF1F0494908603CE03E480068C0F3C8
:1005F0000E0000F101004FEA40013548D0F88800B4
:10060000C0F3074000F10100B1FBF0F0404900FBEE
:1006100001F02E490968C9B201F10101B0FBF1F006
:100620003A4908601EE02F480068C0F30E0000F150
:1006300001004FEA40012648D0F88800C0F3074087
:1006400000F10100B1FBF0F04FF4FA4100FB01F0C2
:100650001E490968C9B201F10101B0FBF1F02B4953
:10066000086000BF2FE01C48006810F0030006D0AF
:10067000012810D0022819D0032823D100E000BFA0
:1006800012480068C0B200F101001F49B1FBF0F050
:100690001E49086016E00D480068C0B200F1010074
:1006A0001B49B1FBF0F0194908600BE007480068EE
:1006B000C0B200F101004FF4FA41B1FBF0F0134970
:1006C000086000BF00BF7047A0C10F4004C10F40C9
:1006D00000C00F40ACC10F400CC10F4084C00F40A0
:1006E0008CC00F4088C00F4080C00F40A4C00F4096
:1006F000ACC00F40A8C00F40A0C00F40DE87280448
:10070000C4C00F40C8C10F4000093D0000000010E8
:10071000001BB7002DE9C04130B4DFF8A0C23CEAAD
:10072000111418BF3CEA131400F0EC8081EA0305B1
:100730001CEA111444EAD57418BF1CEA131500F022
:10074000C780A4EB05044FF0004545EAC12145EA06
:10075000C32341EA505143EA525304F17F74994252
:1007600004F500344FEAC0204FEAC22208BF90428D
:1007700000F09C804FEA13650FF24016765D4FEA59
:10078000134506FB05F7C7F1807706FB07F74FEA2D
:10079000D737A7FB03687642C8F58038A7FB06CE9B
:1007A00038BFA8F1010807FB08E64FF0000EA6FBD2
:1007B000028CE6FB03CEDCF1000CCEF1004E38BF1C
:1007C000AEF1010EA6FB0C584FF000074FF00005EC
:1007D000E6FB0E87A1FB08C6A0FB07CE16EB0E06B4
:1007E00045F10005E1FB076515F1E04E7EBFA4F57C
:1007F00080345FEA46066D4116F1800745F1000539
:100800004FEA17274FEA066647EA0567A6F1DE4674
:10081000B6F1805F4FEA15251FD9384624F0010C48
:1008200005EBC471BCF1FE6F01EB0C1102D8F0BCFA
:10083000BDE8008124425CBF01F5801E9EEAC47FB2
:1008400002D4F0BCBDE80081244238D4F0BCA1F150
:10085000C041BDE80041FFF71FBD4FEAD22242EA86
:1008600043524FEAD323A7FB02864FEAD02040EA47
:10087000415007FB03661EEA0E0F4FEAD12105FB2C
:10088000026658BFA6EB0056B6EB00564FEA520E72
:100890004EEAC37E18EB0E0E56EB530EBDD518EB89
:1008A00002085E417F1C55F10005B6E74FF4801544
:1008B0004FF000074FF000064FF00008ADE7F0BC26
:1008C0004FF0000001F1C04101F00041BDE800819E
:1008D00011EA0C1F0CEA131500D00CE013EA0C1FF0
:1008E00000F025804FF00000F0BC81EA030101F028
:1008F0000041BDE80081F0BCBDE8004181EA030190
:10090000FFF7CABCF0BCBDE8004170B500F05AF872
:10091000097EFC3E00F007B881EA03014FF00000B9
:1009200001F00041704781EA0301FFF7B5BCF0BC5C
:10093000BDE800414FF0000021497047FFFDFBF981
:10094000F7F5F4F2F0EEEDEBE9E8E6E4E3E1E0DE02
:10095000DDDBDAD8D7D5D4D3D1D0CFCDCCCBCAC874
:10096000C7C6C5C4C2C1C0BFBEBDBCBBBAB9B8B79B
:10097000B6B5B4B3B2B1B0AFAEADACABAAA9A8A88E
:10098000A7A6A5A4A3A3A2A1A09F9F9E9D9C9C9B5C
:100990009A99999897979695959493939291919007
:1009A0008F8F8E8E8D8C8C8B8B8A89898888878798
:1009B0008685858484838382828181800000FF070D
:1009C0000000F87F0EF1020E2EF0030E5EF8046BAD
:1009D000364205D4012A43EB030515F5001F12D852
:1009E000012841EB010C1CF5001F0CD80ED14FEA79
:1009F000D17C15F5001F0CEB4C0C0CF1020C08BF60
:100A00004CEBD37C04E04FF0080C01E04FEAD37CC0
:100A10000CEB4C0526FA05F606F00706B6F1040CB9
:100A200006D20EEB860CBDE870404CF0010C60471E
:100A3000DFE80CF0090B02024FF000414FF000001C
:100A4000A1F5002170BD19461046012851EB0104A3
:100A500018BFD4F5001484BF002001F0004170BD20
:040A600000093D004C
:04000005000001698D
:00000001FF
